S02B0000546F67676C6573204C45442077697468207075736820627574746F6D2061746D656761333238702EC9
S11300000C9434000C943E000C943E000C943E007E
S11300100C943E000C943E000C943E000C943E0064
S11300200C943E000C943E000C943E000C943E0054
S11300300C943E000C943E000C943E000C943E0044
S11300400C943E000C943E000C943E000C943E0034
S11300500C943E000C943E000C943E000C943E0024
S11300600C943E000C943E0011241FBECFEFD8E048
S1130070DEBFCDBF0E9440000C9460000C940000D1
S11300800E9447000E9451000E945400FBCF8AB195
S11300908E7F8AB98BB181608BB984B1816084B958
S11300A0089589B1817008950E945100882321F038
S11300B085B18E7F85B9089585B1816085B908952C
S10700C0F894FFCFDE
S9030000FC
